:040000000C948700D5
:100004000C94F1020C94F6020C9400000C94000081
:100014000C9400000C9400000C9400000C9400005C
:100024000C9400000C9400000C9400000C9400004C
:100034000C9400000C9469010C9400000C940000D2
:100044000C9400000C9400000C9400000C9400002C
:100054000C9400000C9400000C9400000C9400001C
:100064000C9400000C9400000C9400000C9400000C
:100074000C94E1010C9400000C9400000C9400001A
:100084000C9400000C9400001027E80364000A009C
:100094000100001000011000010000000000000039
:1000A400000000003D3D3D3D3D3D3D3D3D3D3D3D70
:1000B4003D3D3D3D3D3D3D3D3D3D3D090D0A002558
:1000C400640900000901050406020A0809080A0275
:1000D40006040501010069FF01002D4E414E00494F
:1000E4004E4600000A0004009E000800F208C80002
:1000F4000800FA08D00001000805D80002000D0924
:10010400DA0001001909DC000000F894EE27ECBBCA
:10011400F1E0F5BFE5BFE0936C00F8E1F1BDE1BDAE
:100124008DE0A2E0BB27ED938A95E9F780E090E1AA
:10013400A0E0B1E0ED930197E9F7E8EEF0E08591F6
:100144009591009761F0A591B59105901590BF0127
:10015400F00105900D920197E1F7FB01F0CF8BBF01
:10016400EFEFEDBFE0E1EEBFC0E0D5E00C94BA00E4
:1001740099D00E9462020E94D4020E940C030E9441
:1001840024037894A2E0B0E0EDE1F0E00E944B0695
:10019400A4E0B0E0ECE3F0E00E944B06A6E0B0E09F
:1001A400E4E5F0E00E944B06A8E0B0E0E1E4F0E012
:1001B4000E944B06AAE0B0E0E0EEF1E00E944B069C
:1001C400ACE0B0E0E9E9F0E00E944B060E94FC02DA
:1001D400E13051F5F20131962F01E3E04E2255242E
:1001E400E0EFF0E0FA93EA930E94E702F20130971D
:1001F40019F4E0E1F0E014C0E130A0E0FA0719F4EA
:10020400E0E2F0E00DC0E230A0E0FA0719F4E0E427
:10021400F0E006C0E330A0E0FA0731F4E0E8F0E0F3
:10022400FA93EA930E94DF020E940303E130C1F5CE
:10023400F2013097A9F50E94B104AA24BB24E4E694
:10024400F0E0AE16BF0654F50E94BA04E336A0E00F
:10025400FA0729F40E94C4040E94C9041FC00024A0
:100264000A140B0439F0D501E5E0F0E00E9416060B
:10027400309709F005C00E94C4040E94C9040AC052
:100284000E94C404662777270E94360684E00E94F1
:1002940075042696F50131965F01D1CF0E94B10411
:1002A40095CFFFCFE8B3EF71E8BBE7B3E06EE7BBF0
:1002B400E0916200E87FE0936200E0916100E87FF2
:1002C400E0936100E0E4E7B9E7E8E6B908950E9445
:1002D400DA04E530A0E0FA07B1F40E94E704EA2B5F
:1002E400E2BB0E94E7040E94F3043197FE93EE936D
:1002F400A0910309AA2332F4E7E0F0E0E0930209B5
:10030400F093030951C0E630A0E0FA0721F0E7308A
:10031400A0E0FA0709F404C0E430A0E0FA0709F405
:1003240004C0E830A0E0FA0709F404C0E930A0E012
:10033400FA0709F404C0EA30A0E0FA0709F404C09B
:10034400EB30A0E0FA0709F404C0EC30A0E0FA07AF
:1003540009F404C0ED30A0E0FA0709F404C0EE305B
:10036400A0E0FA0709F404C0EF30A0E0FA0709F4AA
:1003740004C0E031A0E0FA07B9F40E94E704EA2BD4
:10038400E2BB0E94E7040E94F3043196FE93EE93CD
:10039400A0910209B0910309E8E0F0E00E9416067A
:1003A400E0930209F0930309E1E0E0931509E09179
:1003B4000105F070EDBDE0910005ECBD77C00E9431
:1003C400DA04E630A0E0FA0721F0E730A0E0FA070B
:1003D400B1F40E94FB04EA2BE3B90E94FB040E94DF
:1003E40007053197FE93EE93A0910509AA2332F4F1
:1003F400E7E0F0E0E0930409F09305094CC0E43031
:10040400A0E0FA0721F0E830A0E0FA0709F404C0FC
:10041400E530A0E0FA0709F404C0E930A0E0FA07E7
:1004240009F404C0EA30A0E0FA0709F404C0EB3090
:10043400A0E0FA0709F404C0EC30A0E0FA0709F4DC
:1004440004C0ED30A0E0FA0709F404C0EE30A0E0E7
:10045400FA0709F404C0EF30A0E0FA0709F404C075
:10046400E031A0E0FA07B9F40E94FB04EA2BE3B9F7
:100474000E94FB040E9407053196FE93EE93A0911F
:100484000409B0910509E8E0F0E00E941606E09343
:100494000409F0930509E1E0E0931609E0910305EE
:1004A400E0938900E0910205E0938800E991EFBFB1
:1004B400F991E991B991A991999119900990189597
:1004C4002497E2B3EF70E2BBE1B3E06FE1BBE3B1C9
:1004D400EF70E3B9E2B1E06FE2B9E0E0EFBDE4E070
:1004E400EEBDE0E0EDBDECBDE7BDE6BDEBBDEABDB4
:1004F400E9BDE8BDE0937900E0937800E0938B00D8
:10050400E4E0E0938A00E0E0E0938900E09388006F
:10051400E0938100E0938000E0938700E0938600FD
:10052400E0938500E0938400E0938300E0938200ED
:10053400E4E0E7BFE0937D00EBE4F5E16DEC7EE3FE
:100544000E943106A0E0B0E084E393E40E94AE058B
:100554000E946705E0931109F09312090E942C068A
:10056400A8E2BEEC80E892E40E94AE050E94670512
:10057400E0931309F0931409E0E0E0930209E09397
:100584000309E0930409E09305097894E9E6FFEF91
:10059400E0930005F0930105E0930205F093030551
:1005A40024960895E0916200EF70E0936200E09178
:1005B4006100E06FE09361000895A2E6B0E00A2EC6
:1005C400AC91E881E095EA2306C0A2E6B0E00A2EE9
:1005D400EC91A881EA2BA02DEC9322960895EA933E
:1005E400E1E0E093170904C0EA93E1E0E09318091D
:1005F400E99118951A9310911709E0E0E09317090F
:1006040006C01A9310911809E0E0E0931809E12F4D
:1006140019910895E2B3EC7FE2BBE1B3EC7FE1BB57
:10062400EAE0E0936A00E0E0EABFE3E0E9BFE8BFA4
:100634000895E0919B00E072E1F3E881E0939C006F
:1006440021960895E0E0E0939B00E8E1E0939A00AE
:10065400E6E0E0939D00E0E0E0939800E7E6E093B5
:1006640099000895EA81EA93E4DFA881B981ED91C4
:10067400FD913196FE93EE932396089526970E945A
:10068400640610E0AC85BD85E0E0F0E0ED93FC93FA
:10069400EA89FB893196EA8BFB8B3197E4912E2F03
:1006A400E03011F40C946D04E12FE03039F425327C
:1006B40011F411E002C00E940F050CC1E130A9F44D
:1006C400253219F40E940F0504C112E040E000E055
:1006D4002D3211F401E0FEC02B3211F44BE2FAC0CA
:1006E400203211F440E2F6C002C0E23039F450E0A6
:1006F40013E0203311F40068EDC004C0E33011F0BE
:100704000C946C04203310F02A3308F007C0AAE0DC
:100714005A9F502DE22FE0535E0FDCC0E22FE336E8
:1007240049F40E941805E889F989A481AA930E94D2
:100734001E05CFC0E33741F40E9418050E94260528
:100744000E949C041E2F0AC0E03761F40E94180521
:100754000E9426050E94A6041E2F086002600F77DF
:1007640030E035C0E43611F0E93611F4046002C01B
:10077400E53731F4ECE8F0E0EE83FF8315E00DC0DB
:10078400E83511F4086004C0E83711F00C946B04E8
:10079400E6E9F0E0EE83FF8314E002FF14C00E9458
:1007A40018050E943005AB85AA233AF4EA85FB8537
:1007B4000E94F705EA87FB874DE2403011F01F5F86
:1007C40001C00B7F04C00E9418050E94300500FD83
:1007D40011C0151778F407FF08C002FF04C00B7F8F
:1007E400242F115001C020E301C020E20E940F0514
:1007F4005150EFCF312F01FF17C03030A1F003FF6C
:1008040006C0EE81FF812591EE83FF8305C0AE8192
:10081400BF812D91AE83BF830E940F05503009F034
:1008240051503150EACF4BC020E3EE81FF810E944A
:100834002806E887F987EE81FF813296EE83FF83ED
:10084400E885F985AA85BB85AE17BF0750F02F5FF1
:10085400A885B985EA85FB85EA1BFB0BEA87FB873C
:10086400EFCF2A3328F003FF02C0295F01C0295DBE
:1008740004FD1AC0213320F4A885B985119709F421
:1008840009C0531710F000FF01C013C020E207FF96
:100894000BC020E3006102FF07C00B7F4A930E9454
:1008A4001E05503009F051500E940F05503009F0D8
:1008B40051503150A885B985129708F0B5CF00FF83
:1008C40008C0503031F05150E0E2EA930E941E0516
:1008D400F8CF10E0DDCEAC85BD850E9424060E94D1
:1008E4006B0664960895FF92F82E26971A930A933E
:1008F400DE0114960E94F3058D01E0E0EC83ED83A4
:10090400EE83EF83DE0118960E94F3050E9424060D
:10091400FA93EA931A930A93E4E3F3E0FA93EA93DB
:10092400FE013896FA93EA93A9DE19810881289684
:10093400FF900895A991B991EE27FF276D91662341
:1009440011F03196FBCF0895AA27BB27E991F991BD
:100954000590002011F01196FBCFFD010895E8EAFF
:10096400F0E0FA93EA9380E00E94750422960895D9
:10097400F501AEE0B0E0EE0FFF1FAE0FBF1F0E9407
:100984003B060895E3ECF0E0FA93EA93F1CF66278F
:1009940077270E94360684E00E9475042696EFEBC2
:1009A400F0E0FA93EA9380E00E9475042296089599
:1009B4000A921A929A93AA93BA93EA93FA93EFB784
:1009C400EA93E0910609F0E00895E2B3AE2FE091D6
:1009D4000209F0910309E650F74FE081E295E07FC8
:1009E4000895E15FEA23E2BBA2E0B9E0ED91FD9155
:1009F4000895E3B1AE2FE0910409F0910509EE509A
:100A0400F74FE081E295E07F0895E15FEA23E3B9DF
:100A1400A4E0B9E0ED91FD9108952A93ED85FE855A
:100A2400FA93EA93E989FA8909950895E889F98995
:100A34003497E88BF98B0895ED85FE85FA93EA9354
:100A4400E989FA8909950895A889B98914960E94B3
:100A54002406EE83FF83FA93EA930895A889B9895B
:100A640014960E942406EA87FB870895552342F4CE
:100A7400503811F4E0FF04C03196691F791F6BF000
:100A840050E8572711F45F9355C05F3F31F0660F6C
:100A9400000C57956795752F08955F9300200AF011
:100AA40055C04EC050E8192E1522880F991F95275E
:100AB400550F879550E8072E0522660F771F752777
:100AC400550F67950895689401C0E8945F93F2DF29
:100AD400703818F07F3F08F42DC056E1571BAAF474
:100AE400519558300EF4593030F0EFEFFFEF6FEFBF
:100AF4007FE777F91AC077275523B9F0EE0FFF1F68
:100B0400661F771F5A95D1F710C07727583028F001
:100B1400EF2FF62F672F5850F9CF552331F07695E4
:100B24006795F795E7955A95D1F700200AF461D0B7
:100B34005F910895EE27FF27662777275F91089531
:100B4400EFEFFFEF6FE77FEF5F910895EFEFFFEFB8
:100B54006FE77FE75F9108955F93A4DF703821F416
:100B640011200AF4EDCFF2CF903809F4E3CF012439
:100B74000894970B1BF4D4F30020F3CF792F1F9321
:100B84002F933F934F931124112722273327442770
:100B9400552790E2AE17BF078607410730F0AE1B1A
:100BA400BF0B860B410B089401C08894551F221F6C
:100BB400331F111CAA1FBB1F881F441F9A9551F78E
:100BC400F901612D4F913F912F911F91662332F0CE
:100BD400550FEE1FFF1F661F7A9543F247DF5F91A3
:100BE40008950024AF0DB01D0895F195E195F040EE
:100BF4000895F09560957095E195FF4F6F4F7F4F85
:100C040008950024112490E1AA0FBB1F001C111C9D
:100C14000E1A1F0A18F40E0E1F1E01C0A1609A9529
:100C240099F7FD01D0010895E894B7FF04C0A09599
:100C3400B09511966894F7FDD8DFE3DFFD010EF45B
:100C4400D4DF0895ED91FC91119708950590F491E6
:100C5400E02D0895E881F9816A817B810895E88314
:100C6400F9836A837B8308957A936A93FA93EA9368
:100C74000895119602D0FE2F1197E199FECFFF93AC
:100C8400FFB7F894AEBBBFBBE09AEDB3FFBFFF91D3
:100C9400089507D01196EF93EF2F03D0EF9111979A
:100CA4000895E19B02C0A895FCCF9FB7F894AEBB12
:100CB400BFBBE09A8DB3E81719F0EDBBE29AE19A55
:100CC4009FBF08955A934A933A932A931A930A9387
:100CD40008955D814C813B812A81198108810895A1
:00000001FF
