:0E0000000C945E000C9491000C9495000C94EE
:10000E0000000C9400000C9400000C9400000C9462
:10001E0000000C9400000C9400000C9400000C9452
:10002E0000000C9400000C9400000C94F9000C9449
:10003E0000000C9400000C9400000C9400000C9432
:10004E0000000C9400000C9400000C9400000C9422
:10005E0000000C9400000C9400000C9400000C9412
:10006E0000000C9400000C9440010C9400000C94C1
:10007E0000000C9400000C9400000C94000010275B
:10008E00E80364000A0001000010000110000100E6
:10009E000901050406020A0809080A0206040501F8
:1000AE00080000059E0008000805A6000000F89450
:1000BE00EE27ECBBF1E0F5BFE5BFE0936C00F8E195
:1000CE00F1BDE1BD8DE0A2E0BB27ED938A95E9F786
:1000DE0080E090E1A0E0B1E0ED930197E9F7EEEA60
:1000EE00F0E085919591009761F0A591B5910590FD
:1000FE001590BF01F00105900D920197E1F7FB01FC
:10010E00F0CF8BBFEFEFEDBFE0E1EEBFC0E0D5E08B
:10011E000C94AE000E94ED01E0E003C00E94ED01E0
:10012E00EFEFE0936200E8EEF3E0FA93EA930E94B9
:10013E001902E991EFBFF991E991B991A9919991BC
:10014E00899179916991F9901990099018950BD030
:10015E000E94EA000E94D5000E94C5000E948F01F5
:10016E007894FFCFFFCFE0916200EF70E0936200D2
:10017E00E0916100E06FE09361000895E0E0E093AC
:10018E009B00E8E1E0939A00E6E0E0939D00E0E05A
:10019E00E0939800E7E6E09399000895E8B3EF71D5
:1001AE00E8BBE7B3E06EE7BBE0916200E87FE09367
:1001BE006200E0916100E87FE0936100E0E4E7B95E
:1001CE00E7E8E6B90895E2B3EC7FE2BBE1B3EC7F7A
:1001DE00E1BBEAE0E0936A00E0E0EABFE3E0E9BFFA
:1001EE00E8BF08950E94FB01E530A0E0FA07A1F4F4
:1001FE000E940702E029E2BB0E940702E15FE021B4
:10020E00E2BBF20131972F010024401450041CF47C
:10021E00E7E0F0E02F0124C0E630A0E0FA0721F07D
:10022E00E730A0E0FA0709F404C0E430A0E0FA07D2
:10023E0009F404C0E830A0E0FA0791F40E94070226
:10024E00E029E2BB0E940702E15FE021E2BBF2017E
:10025E0031962F01D201E8E0F0E00E94FF022F015B
:10026E00E1E0E0931405E92DF070EDBDE82DECBD55
:10027E0045C00E94FB01E630A0E0FA0721F0E7300E
:10028E00A0E0FA07A1F40E941002E029E3B90E944F
:10029E001002E15FE021E3B9F30131973F01002441
:1002AE00601470041CF4E7E0F0E03F011FC0E4307E
:1002BE00A0E0FA0721F0E830A0E0FA0709F404C044
:1002CE00E530A0E0FA0791F40E941002E029E3B9AC
:1002DE000E941002E15FE021E3B9F30131963F0184
:1002EE00D301E8E0F0E00E94FF023F01E1E0E0937D
:1002FE001505B0928900EA2DE0938800E991EFBFD1
:10030E00F991E991B991A99199911990099018953E
:10031E002497E2B3EF70E2BBE1B3E06FE1BBE3B170
:10032E00EF70E3B9E2B1E06FE2B9E0E0EFBDE4E017
:10033E00EEBDE0E0EDBDECBDE7BDE6BDEBBDEABD5B
:10034E00E9BDE8BDE0937900E0937800E0938B007F
:10035E00E4E0E0938A00E0E0E0938900E093880017
:10036E00E0938100E0938000E0938700E0938600A5
:10037E00E0938500E0938400E0938300E093820095
:10038E00E4E0E7BFE0937D00EBE4F5E16DEC7EE3A6
:10039E000E941203A0E0B0E084E393E40E949B026B
:1003AE000E945402E0931005F09311050E940D0374
:1003BE00A8E2BEEC80E892E40E949B020E945402E6
:1003CE00E0931205F0931305249608950A921A925B
:1003DE00FA926A937A938A939A93AA93BA93EA9328
:1003EE00FA93EFB7EA9308950A921A929A93AA9300
:1003FE00BA93EA93FA93EFB7EA93ED2DF0E00895EE
:10040E0002B2A8E0B5E0A40DB51DEC91E295E07F37
:10041E00089503B0A0E0B5E0A60DB71DEC91E295EE
:10042E00E07F0895E991F991309639F080EA9FE0E6
:10043E000197F1F7A8953197C9F70895552342F41E
:10044E00503811F4E0FF04C03196691F791F6BF02C
:10045E0050E8572711F45F9355C05F3F31F0660F98
:10046E00000C57956795752F08955F9300200AF03D
:10047E0055C04EC050E8192E1522880F991F95278A
:10048E00550F879550E8072E0522660F771F7527A3
:10049E00550F67950895689401C0E8945F93F2DF55
:1004AE00703818F07F3F08F42DC056E1571BAAF4A0
:1004BE00519558300EF4593030F0EFEFFFEF6FEFEB
:1004CE007FE777F91AC077275523B9F0EE0FFF1F94
:1004DE00661F771F5A95D1F710C07727583028F02E
:1004EE00EF2FF62F672F5850F9CF552331F0769511
:1004FE006795F795E7955A95D1F700200AF45DD0E8
:10050E005F910895EE27FF27662777275F9108955D
:10051E00EFEFFFEF6FE77FEF5F910895EFEFFFEFE4
:10052E006FE77FE75F9108955F93A4DF703821F442
:10053E0011200AF4EDCFF2CF903809F4E3CF012465
:10054E000894970B1BF4D4F30020F3CF792F1F934D
:10055E002F933F934F93112411272227332744279C
:10056E00552790E2AE17BF078607410730F0AE1B46
:10057E00BF0B860B410B089401C08894551F221F98
:10058E00331F111CAA1FBB1F881F441F9A9551F7BA
:10059E00F901612D4F913F912F911F91662332F0FA
:1005AE00550FEE1FFF1F661F7A9543F247DF5F91CF
:1005BE000895F195E195F0400895F0956095709548
:1005CE00E195FF4F6F4F7F4F08950024112490E166
:1005DE00AA0FBB1F001C111C0E1A1F0A18F40E0EB8
:1005EE001F1E01C0A1609A9599F7FD01D0010895D3
:1005FE00E894B7FF04C0A095B09511966894F7FDE6
:10060E00D8DFE3DFFD010EF4D4DF0895E881F98130
:10061E006A817B810895E883F9836A837B830895D9
:00000001FF
