:100000000C944C000C947F000C94C1000C940000E4
:100010000C9400000C9400000C9400000C94000060
:100020000C9400000C9400000C9400000C94000050
:100030000C9400000C9400000C9400000C94000040
:100040000C9400000C9400000C9400000C94000030
:100050000C9400000C9400000C9400000C94000020
:100060000C9400000C9400000C9400000C94000010
:100070000C9400000C9400000C9400000C94000000
:100080000C9400000C9400000C9400008000000010
:10009000040004008C000000F894EE27ECBBF1E0B3
:1000A000F5BFE5BFE0936C00F8E1F1BDE1BD8DE087
:1000B000A2E0BB27ED938A95E9F780E090E1A0E00C
:1000C000B1E0ED930197E9F7E0E9F0E085919591D2
:1000D000009761F0A591B59105901590BF01F001D1
:1000E00005900D920197E1F7FB01F0CF8BBFEFEF89
:1000F000EDBFE0E1EEBFC0E0D5E00C94CD000A9288
:100100001A92FA926A937A938A939A93AA93BA93D9
:10011000EA93FA93EFB7EA93E4E0F0E0E615F70527
:1001200049F466247724E0E0E0936200E0E8F0E040
:100130002F0110C0E1E0F0E06E167F065CF0F201E6
:10014000E095F095F595E795E095E0936200409095
:1001500062005524F30131963F01E8EEF3E0FA9393
:10016000EA930E94E400E991EFBFF991E991B99116
:10017000A9919991899179916991F9901990099032
:100180001895EA93EFB7EA9366247724E0E0E093CA
:100190006200E991EFBFE9911895E8E0E0936A0009
:1001A000E0E0EABFE3E0E9BFE8BF789402D0FFCF28
:1001B000FFCFE0916200EF70E0936200E091610098
:1001C000E06FE09361000895E991F991309639F07C
:1001D00080EA9FE00197F1F7A8953197C9F7089554
:00000001FF
