:060000000C9457000C9463
:100006008A000C949C000C9400000C9400000C9444
:1000160000000C9400000C9400000C9400000C945A
:1000260000000C9400000C9400000C9400000C944A
:1000360000000C9400000C9400000C9400000C943A
:1000460000000C9400000C9400000C9400000C942A
:1000560000000C9400000C9400000C9400000C941A
:1000660000000C9400000C9400000C9400000C940A
:1000760000000C9400000C9400000C9400000C94FA
:1000860000000C9400001027E80364000A00010039
:100096000010000110000100000000000000000038
:1000A600080004009E000000F894EE27ECBBF1E087
:1000B600F5BFE5BFE0936C00F8E1F1BDE1BD8DE071
:1000C600A2E0BB27ED938A95E9F780E090E1A0E0F6
:1000D600B1E0ED930197E9F7E6EAF0E085919591B5
:1000E600009761F0A591B59105901590BF01F001BB
:1000F60005900D920197E1F7FB01F0CF8BBFEFEF73
:10010600EDBFE0E1EEBFC0E0D5E00C94F300EA936A
:10011600FA93EFB7EA93E4E0F0E0EA15FB0509F499
:100126005F01F50131965F01E991EFBFF991E99120
:1001360018950A92EA93FA93EFB7EA930A2C0B28DA
:1001460011F4AA24BB24F50131975F01E991EFBFB1
:10015600F991E99109901895E881E064E7B985E39A
:100166008A95F1F7369A349BFECF349AE4B1F5B10D
:10017600219608951A930A93EA81F0E0309729F4BC
:10018600C59A0E946D01C59811C0E130A0E0FA073A
:1001960029F4C69A0E946D01C69808C0E230A0E014
:1001A600FA0721F4C79A0E946D01C798F8011981D0
:1001B600088123960895E8B3EF71E8BBE7B3E06ED4
:1001C600E7BBE0916200E87FE0936200E0916100A6
:1001D600E87FE0936100E0E4E7B9E7E8E6B908956F
:1001E6004CD0E9DF0E945001EAE0E0936A00E0E0CB
:1001F600EABFE3E0E9BFE8BF7894E0E0EA93BADF5C
:100206002F01E4E6F0E0FA93EA930E947701E1E039
:10021600F0E0EA15FB0519F4E0E1F0E06F01E2E039
:10022600F0E0EA15FB0519F4E0E2F0E06F01E3E027
:10023600F0E0EA15FB0519F4E0E4F0E06F01E4E014
:10024600F0E0EA15FB0519F4E0E8F0E06F01DA9258
:10025600CA920E945B01E0E5F0E0E419F509FA9321
:10026600EA930E947701DA92CA920E9463015A9237
:100276004A920E947701C1CFFFCFE0E0E0939B0056
:10028600E8E1E0939A00E6E0E0939D00E0E0E09389
:100296009800E7E6E09399000895E0916200EF7018
:1002A600E0936200E0916100E06FE09361000895E1
:1002B600A2E6B0E00A2EAC91E881E095EA2306C0FA
:1002C600A2E6B0E00A2EEC91A881EA2BA02DEC93D1
:1002D6002296089588EC90E00197F1F7EA81EA9377
:1002E6000E94AF008F010895E991F991309639F097
:1002F60080EA9FE00197F1F7A8953197C9F708952D
:00000001FF
