:0C0000000C9460000C9400000C940000B4
:10000C000C9400000C9400000C9400000C94000064
:10001C000C9400000C9400000C9400000C94000054
:10002C000C9400000C9400000C9400000C949300B1
:10003C000C9400000C9400000C9400000C94000034
:10004C000C9400000C9400000C9400000C94000024
:10005C000C9400000C9400000C9400000C94000014
:10006C000C9400000C9400000C94DA000C9400002A
:10007C000C9400000C9400000C9400000C940000F4
:10008C001027E80364000A000100001000011000B2
:10009C0001000901050406020A0809080A020604FF
:1000AC00050125640000080000059E0008000805F5
:1000BC00A6000000F894EE27ECBBF1E0F5BFE5BF1D
:1000CC00E0936C00F8E1F1BDE1BD8DE0A2E0BB274F
:1000DC00ED938A95E9F780E090E1A0E0B1E0ED9333
:1000EC000197E9F7E2EBF0E085919591009761F0CB
:1000FC00A591B59105901590BF01F00105900D9259
:10010C000197E1F7FB01F0CF8BBFEFEFEDBFE0E123
:10011C00EEBFC0E0D5E00C9487010E948003E5306F
:10012C00A0E0FA07A1F40E948C03E029E2BB0E9434
:10013C008C03E15FE021E2BBF20131972F01002437
:10014C00401450041CF4E7E0F0E02F0124C0E6302A
:10015C00A0E0FA0721F0E730A0E0FA0709F404C0A8
:10016C00E430A0E0FA0709F404C0E830A0E0FA0794
:10017C0091F40E948C03E029E2BB0E948C03E15FA6
:10018C00E021E2BBF20131962F01D201E8E0F0E070
:10019C000E94BB042F01E1E0E0931405E92DF070FF
:1001AC00EDBDE82DECBD45C00E948003E630A0E01B
:1001BC00FA0721F0E730A0E0FA07A1F40E949503BA
:1001CC00E029E3B90E949503E15FE021E3B9F30173
:1001DC0031973F010024601470041CF4E7E0F0E058
:1001EC003F011FC0E430A0E0FA0721F0E830A0E0A6
:1001FC00FA0709F404C0E530A0E0FA0791F40E9474
:10020C009503E029E3B90E949503E15FE021E3B98E
:10021C00F30131963F01D301E8E0F0E00E94BB040A
:10022C003F01E1E0E0931505B0928900EA2DE093DF
:10023C008800E991EFBFF991E991B991A991999150
:10024C001990099018952497E2B3EF70E2BBE1B3D3
:10025C00E06FE1BBE3B1EF70E3B9E2B1E06FE2B99B
:10026C00E0E0EFBDE4E0EEBDE0E0EDBDECBDE7BDF0
:10027C00E6BDEBBDEABDE9BDE8BDE0937900E093D6
:10028C007800E0938B00E4E0E0938A00E0E0E093F8
:10029C008900E0938800E0938100E0938000E09374
:1002AC008700E0938600E0938500E0938400E09360
:1002BC008300E0938200E4E0E7BFE0937D00EBE491
:1002CC00F5E16DEC7EE30E94D604A0E0B0E084E39F
:1002DC0093E40E9453040E940C04E0931005F093E5
:1002EC0011050E94D104A8E2BEEC80E892E40E94C1
:1002FC0053040E940C04E0931205F093130524960A
:10030C000895A1DF1ED00E94F301442455246624D5
:10031C0077247894EEEAF0E0FA93EA93E2E0EA9339
:10032C0032D0662777270E94DB0484E00E944403C6
:10033C002696E4EFF1E0FA93EA930E94D103EACF18
:10034C00FFCFE8B3EF71E8BBE7B3E06EE7BBE0913A
:10035C006200E87FE0936200E0916100E87FE09347
:10036C006100E0E4E7B9E7E8E6B90895E881E06404
:10037C00E7B985E38A95F1F7369A349BFECF349A28
:10038C00E4B1F5B128C01A930A93EA81F0E03097F2
:10039C0029F4C59A0E949E03C59811C0E130A0E0D3
:1003AC00FA0729F4C69A0E949E03C69808C0E23048
:1003BC00A0E0FA0721F4C79A0E949E03C798F8019F
:1003CC00198108810C940D02E0919B00E072E1F31D
:1003DC00E881E0939C0021960895E0E0E0939B0077
:1003EC00E8E1E0939A00E6E0E0939D00E0E0E09322
:1003FC009800E7E6E09399000895EA81EA93E4DF38
:10040C00A881B981ED91FD913196FE93EE932396DF
:10041C00089526970E94E00410E0AC85BD85E0E0CD
:10042C00F0E0ED93FC93EA89FB893196EA8BFB8B28
:10043C003197E4912E2FE03011F40C943C03E12F12
:10044C00E03039F4253211F411E002C00E94A80307
:10045C000CC1E130A9F4253219F40E94A80304C19F
:10046C0012E040E000E02D3211F401E0FEC02B322E
:10047C0011F44BE2FAC0203211F440E2F6C002C093
:10048C00E23039F450E013E0203311F40068EDC091
:10049C0004C0E33011F00C943B03203310F02A33EA
:1004AC0008F007C0AAE05A9F502DE22FE0535E0FD0
:1004BC00DCC0E22FE33649F40E94B103E889F989E4
:1004CC00A481AA930E94B703CFC0E33741F40E94E2
:1004DC00B1030E94BF030E946B031E2F0AC0E037BA
:1004EC0061F40E94B1030E94BF030E9475031E2F8A
:1004FC00086002600F7730E035C0E43611F0E93661
:10050C0011F4046002C0E53731F4ECE8F0E0EE835E
:10051C00FF8315E00DC0E83511F4086004C0E8371E
:10052C0011F00C943A03E6E9F0E0EE83FF8314E05B
:10053C0002FF14C00E94B1030E94C903AB85AA2319
:10054C003AF4EA85FB850E949C04EA87FB874DE21E
:10055C00403011F01F5F01C00B7F04C00E94B1033B
:10056C000E94C90300FD11C0151778F407FF08C0DD
:10057C0002FF04C00B7F242F115001C020E301C0E7
:10058C0020E20E94A8035150EFCF312F01FF17C07A
:10059C003030A1F003FF06C0EE81FF812591EE8380
:1005AC00FF8305C0AE81BF812D91AE83BF830E94B6
:1005BC00A803503009F051503150EACF4BC020E322
:1005CC00EE81FF810E94CD04E887F987EE81FF81DF
:1005DC003296EE83FF83E885F985AA85BB85AE1735
:1005EC00BF0750F02F5FA885B985EA85FB85EA1B0C
:1005FC00FB0BEA87FB87EFCF2A3328F003FF02C0FF
:10060C00295F01C0295D04FD1AC0213320F4A8859F
:10061C00B985119709F409C0531710F000FF01C0F8
:10062C0013C020E207FF0BC020E3006102FF07C0EC
:10063C000B7F4A930E94B703503009F051500E942F
:10064C00A803503009F051503150A885B985129744
:10065C0008F0B5CF00FF08C0503031F05150E0E247
:10066C00EA930E94B703F8CF10E0DDCEAC85BD85D0
:10067C000E94C9040E94E70464960895FF92F82E24
:10068C0026971A930A93DE0114960E9498048D0102
:10069C00E0E0EC83ED83EE83EF83DE0118960E949D
:1006AC0098040E94C904FA93EA931A930A93E3E01C
:1006BC00F2E0FA93EA93FE013896FA93EA93A9DEF4
:1006CC00198108812896FF900895A991B991EE2778
:1006DC00FF276D91662311F03196FBCF0895AA2761
:1006EC00BB27E991F9910590002011F01196FBCFF1
:1006FC00FD0108950A921A929A93AA93BA93EA93D7
:10070C00FA93EFB7EA93ED2DF0E0089502B2A8E06A
:10071C00B5E0A40DB51DEC91E295E07F089503B012
:10072C00A0E0B5E0A60DB71DEC91E295E07F089531
:10073C0088EC90E00197F1F7EA81EA930E94BC0102
:10074C008F0108952A93ED85FE85FA93EA93E98942
:10075C00FA8909950895E889F9893497E88BF98B1A
:10076C000895ED85FE85FA93EA93E989FA8909954E
:10077C000895A889B98914960E94C904EE83FF8351
:10078C00FA93EA930895A889B98914960E94C9042A
:10079C00EA87FB870895E991F991309639F080EA60
:1007AC009FE00197F1F7A8953197C9F70895552364
:1007BC0042F4503811F4E0FF04C03196691F791FE0
:1007CC006BF050E8572711F45F9355C05F3F31F041
:1007DC00660F000C57956795752F08955F93002051
:1007EC000AF055C04EC050E8192E1522880F991FDB
:1007FC009527550F879550E8072E0522660F771F12
:10080C007527550F67950895689401C0E8945F9318
:10081C00F2DF703818F07F3F08F42DC056E1571BFB
:10082C00AAF4519558300EF4593030F0EFEFFFEF39
:10083C006FEF7FE777F91AC077275523B9F0EE0FE2
:10084C00FF1F661F771F5A95D1F710C077275830B6
:10085C0028F0EF2FF62F672F5850F9CF552331F092
:10086C0076956795F795E7955A95D1F700200AF498
:10087C0061D05F910895EE27FF27662777275F9158
:10088C000895EFEFFFEF6FE77FEF5F910895EFEFC4
:10089C00FFEF6FE77FE75F9108955F93A4DF7038F8
:1008AC0021F411200AF4EDCFF2CF903809F4E3CF04
:1008BC0001240894970B1BF4D4F30020F3CF792F69
:1008CC001F932F933F934F931124112722273327E4
:1008DC004427552790E2AE17BF078607410730F033
:1008EC00AE1BBF0B860B410B089401C08894551F9F
:1008FC00221F331F111CAA1FBB1F881F441F9A9550
:10090C0051F7F901612D4F913F912F911F91662362
:10091C0032F0550FEE1FFF1F661F7A9543F247DF2B
:10092C005F9108950024AF0DB01D0895F195E195E8
:10093C00F0400895F09560957095E195FF4F6F4FDD
:10094C007F4F08950024112490E1AA0FBB1F001CB7
:10095C00111C0E1A1F0A18F40E0E1F1E01C0A160E6
:10096C009A9599F7FD01D0010895E894B7FF04C05A
:10097C00A095B09511966894F7FDD8DFE3DFFD01E3
:10098C000EF4D4DF0895ED91FC9111970895059024
:10099C00F491E02D0895E881F9816A817B810895B5
:1009AC00E883F9836A837B8308957A936A93FA9335
:1009BC00EA9308955A934A933A932A931A930A9373
:1009CC0008955D814C813B812A81198108810895AC
:00000001FF
