:020000000C945E
:1000020054000C9487000C9499000C9400000C94FA
:1000120000000C9400000C9400000C9400000C945E
:1000220000000C9400000C9400000C9400000C944E
:1000320000000C9400000C9400000C9400000C943E
:1000420000000C9400000C9400000C9400000C942E
:1000520000000C9400000C9400000C9400000C941E
:1000620000000C9400000C9400000C9400000C940E
:1000720000000C9400000C9400000C9400000C94FE
:1000820000000C9400000C9400000A0001002D4EA8
:10009200414E00494E460000020004008C0001005F
:1000A20000058E000000F894EE27ECBBF1E0F5BFEE
:1000B200E5BFE0936C00F8E1F1BDE1BD8DE0A2E0A7
:1000C200BB27ED938A95E9F780E090E1A0E0B1E0EB
:1000D200ED930197E9F7EAE9F0E0859195910097B0
:1000E20061F0A591B59105901590BF01F0010590C1
:1000F2000D920197E1F7FB01F0CF8BBFEFEFEDBF60
:10010200E0E1EEBFC0E0D5E00C94AC00EA93FA93D4
:10011200EFB7EA93E4E1F0E0E415F50509F42F0105
:10012200F20131962F01E991EFBFF991E99118950A
:100132000A92EA93FA93EFB7EA93042C052811F492
:1001420044245524F20131972F01E991EFBFF9912F
:10015200E99109901895EAE0E0936A00E0E0EABFCD
:10016200E3E0E9BFE8BF789414D0E0E0E0936200F6
:100172005A924A920E94D500EFEFE0936200E4E1C6
:10018200F0E0E419F509FA93EA930E94D500EDCF65
:10019200FFCFE0916200EF70E0936200E0916100B6
:1001A200E06FE09361000895E991F991309639F09A
:1001B20080EA9FE00197F1F7A8953197C9F7089572
:00000001FF
