:0C0000000C9456000C9489000C94AF0086
:10000C000C9400000C9400000C9400000C94000064
:10001C000C9400000C9400000C9400000C94000054
:10002C000C9400000C9400000C9400000C94000044
:10003C000C9400000C9400000C9400000C94000034
:10004C000C9400000C9400000C9400000C94000024
:10005C000C9400000C9400000C9400000C94000014
:10006C000C9400000C9400000C9400000C94000004
:10007C000C9400000C9400000C9400000C940000F4
:10008C0010000000000001002D4E414E00494E466C
:10009C000000060004008C00010000059200000026
:1000AC00F894EE27ECBBF1E0F5BFE5BFE0936C00F4
:1000BC00F8E1F1BDE1BD8DE0A2E0BB27ED938A959F
:1000CC00E9F780E090E1A0E0B1E0ED930197E9F76A
:1000DC00EEE9F0E085919591009761F0A591B591CD
:1000EC0005901590BF01F00105900D920197E1F775
:1000FC00FB01F0CF8BBFEFEFEDBFE0E1EEBFC0E057
:10010C00D5E00C94B7000A92EA93FA93EFB7EA930E
:10011C00E1E0F0E0E815F90599F000240814090471
:10012C0029F4E0E8F0E0E415F50509F007C0E0E19A
:10013C00F0E02F01E1E0F0E04F0102C0440C551C4F
:10014C00E1E0F0E04F01E991EFBFF991E9910990FD
:10015C001895EA93FA93E0E1F0E02F01F991E99117
:10016C001895EAE0E0936A00E0E0EABFE3E0E9BF5B
:10017C00E8BF78941BD0E1E0F0E0E815F90571F4E4
:10018C00EFEFE09362005A924A921BD0E8EEF3E054
:10019C00FA93EA930E94F200882499245A924A9284
:1001AC0010D0EFEFE0936200E6CFFFCFE09162005A
:1001BC00EF70E0936200E0916100E06FE09361000A
:1001CC000895A2E6B0E00A2EAC91E881E095EA230E
:1001DC00A02DEC9322960895E991F991309639F07F
:1001EC0080EA9FE00197F1F7A8953197C9F7089538
:00000001FF
